{
  "contractName": "FixedProductMarketMaker",
  "abi": [
    {
      "constant": true,
      "inputs": [
        {
          "name": "interfaceId",
          "type": "bytes4"
        }
      ],
      "name": "supportsInterface",
      "outputs": [
        {
          "name": "",
          "type": "bool"
        }
      ],
      "payable": false,
      "stateMutability": "view",
      "type": "function"
    },
    {
      "constant": false,
      "inputs": [
        {
          "name": "spender",
          "type": "address"
        },
        {
          "name": "amount",
          "type": "uint256"
        }
      ],
      "name": "approve",
      "outputs": [
        {
          "name": "",
          "type": "bool"
        }
      ],
      "payable": false,
      "stateMutability": "nonpayable",
      "type": "function"
    },
    {
      "constant": true,
      "inputs": [],
      "name": "totalSupply",
      "outputs": [
        {
          "name": "",
          "type": "uint256"
        }
      ],
      "payable": false,
      "stateMutability": "view",
      "type": "function"
    },
    {
      "constant": false,
      "inputs": [
        {
          "name": "sender",
          "type": "address"
        },
        {
          "name": "recipient",
          "type": "address"
        },
        {
          "name": "amount",
          "type": "uint256"
        }
      ],
      "name": "transferFrom",
      "outputs": [
        {
          "name": "",
          "type": "bool"
        }
      ],
      "payable": false,
      "stateMutability": "nonpayable",
      "type": "function"
    },
    {
      "constant": false,
      "inputs": [
        {
          "name": "spender",
          "type": "address"
        },
        {
          "name": "addedValue",
          "type": "uint256"
        }
      ],
      "name": "increaseAllowance",
      "outputs": [
        {
          "name": "",
          "type": "bool"
        }
      ],
      "payable": false,
      "stateMutability": "nonpayable",
      "type": "function"
    },
    {
      "constant": true,
      "inputs": [],
      "name": "conditionalTokens",
      "outputs": [
        {
          "name": "",
          "type": "address"
        }
      ],
      "payable": false,
      "stateMutability": "view",
      "type": "function"
    },
    {
      "constant": true,
      "inputs": [
        {
          "name": "account",
          "type": "address"
        }
      ],
      "name": "balanceOf",
      "outputs": [
        {
          "name": "",
          "type": "uint256"
        }
      ],
      "payable": false,
      "stateMutability": "view",
      "type": "function"
    },
    {
      "constant": false,
      "inputs": [
        {
          "name": "spender",
          "type": "address"
        },
        {
          "name": "subtractedValue",
          "type": "uint256"
        }
      ],
      "name": "decreaseAllowance",
      "outputs": [
        {
          "name": "",
          "type": "bool"
        }
      ],
      "payable": false,
      "stateMutability": "nonpayable",
      "type": "function"
    },
    {
      "constant": false,
      "inputs": [
        {
          "name": "recipient",
          "type": "address"
        },
        {
          "name": "amount",
          "type": "uint256"
        }
      ],
      "name": "transfer",
      "outputs": [
        {
          "name": "",
          "type": "bool"
        }
      ],
      "payable": false,
      "stateMutability": "nonpayable",
      "type": "function"
    },
    {
      "constant": true,
      "inputs": [],
      "name": "collateralToken",
      "outputs": [
        {
          "name": "",
          "type": "address"
        }
      ],
      "payable": false,
      "stateMutability": "view",
      "type": "function"
    },
    {
      "constant": true,
      "inputs": [
        {
          "name": "",
          "type": "uint256"
        }
      ],
      "name": "conditionIds",
      "outputs": [
        {
          "name": "",
          "type": "bytes32"
        }
      ],
      "payable": false,
      "stateMutability": "view",
      "type": "function"
    },
    {
      "constant": true,
      "inputs": [
        {
          "name": "owner",
          "type": "address"
        },
        {
          "name": "spender",
          "type": "address"
        }
      ],
      "name": "allowance",
      "outputs": [
        {
          "name": "",
          "type": "uint256"
        }
      ],
      "payable": false,
      "stateMutability": "view",
      "type": "function"
    },
    {
      "constant": true,
      "inputs": [],
      "name": "fee",
      "outputs": [
        {
          "name": "",
          "type": "uint256"
        }
      ],
      "payable": false,
      "stateMutability": "view",
      "type": "function"
    },
    {
      "anonymous": false,
      "inputs": [
        {
          "indexed": true,
          "name": "funder",
          "type": "address"
        },
        {
          "indexed": false,
          "name": "amountsAdded",
          "type": "uint256[]"
        },
        {
          "indexed": false,
          "name": "sharesMinted",
          "type": "uint256"
        }
      ],
      "name": "FPMMFundingAdded",
      "type": "event"
    },
    {
      "anonymous": false,
      "inputs": [
        {
          "indexed": true,
          "name": "funder",
          "type": "address"
        },
        {
          "indexed": false,
          "name": "amountsRemoved",
          "type": "uint256[]"
        },
        {
          "indexed": false,
          "name": "collateralRemovedFromFeePool",
          "type": "uint256"
        },
        {
          "indexed": false,
          "name": "sharesBurnt",
          "type": "uint256"
        }
      ],
      "name": "FPMMFundingRemoved",
      "type": "event"
    },
    {
      "anonymous": false,
      "inputs": [
        {
          "indexed": true,
          "name": "buyer",
          "type": "address"
        },
        {
          "indexed": false,
          "name": "investmentAmount",
          "type": "uint256"
        },
        {
          "indexed": false,
          "name": "feeAmount",
          "type": "uint256"
        },
        {
          "indexed": true,
          "name": "outcomeIndex",
          "type": "uint256"
        },
        {
          "indexed": false,
          "name": "outcomeTokensBought",
          "type": "uint256"
        }
      ],
      "name": "FPMMBuy",
      "type": "event"
    },
    {
      "anonymous": false,
      "inputs": [
        {
          "indexed": true,
          "name": "seller",
          "type": "address"
        },
        {
          "indexed": false,
          "name": "returnAmount",
          "type": "uint256"
        },
        {
          "indexed": false,
          "name": "feeAmount",
          "type": "uint256"
        },
        {
          "indexed": true,
          "name": "outcomeIndex",
          "type": "uint256"
        },
        {
          "indexed": false,
          "name": "outcomeTokensSold",
          "type": "uint256"
        }
      ],
      "name": "FPMMSell",
      "type": "event"
    },
    {
      "anonymous": false,
      "inputs": [
        {
          "indexed": true,
          "name": "from",
          "type": "address"
        },
        {
          "indexed": true,
          "name": "to",
          "type": "address"
        },
        {
          "indexed": false,
          "name": "value",
          "type": "uint256"
        }
      ],
      "name": "Transfer",
      "type": "event"
    },
    {
      "anonymous": false,
      "inputs": [
        {
          "indexed": true,
          "name": "owner",
          "type": "address"
        },
        {
          "indexed": true,
          "name": "spender",
          "type": "address"
        },
        {
          "indexed": false,
          "name": "value",
          "type": "uint256"
        }
      ],
      "name": "Approval",
      "type": "event"
    },
    {
      "constant": true,
      "inputs": [],
      "name": "collectedFees",
      "outputs": [
        {
          "name": "",
          "type": "uint256"
        }
      ],
      "payable": false,
      "stateMutability": "view",
      "type": "function"
    },
    {
      "constant": true,
      "inputs": [
        {
          "name": "account",
          "type": "address"
        }
      ],
      "name": "feesWithdrawableBy",
      "outputs": [
        {
          "name": "",
          "type": "uint256"
        }
      ],
      "payable": false,
      "stateMutability": "view",
      "type": "function"
    },
    {
      "constant": false,
      "inputs": [
        {
          "name": "account",
          "type": "address"
        }
      ],
      "name": "withdrawFees",
      "outputs": [],
      "payable": false,
      "stateMutability": "nonpayable",
      "type": "function"
    },
    {
      "constant": false,
      "inputs": [
        {
          "name": "addedFunds",
          "type": "uint256"
        },
        {
          "name": "distributionHint",
          "type": "uint256[]"
        }
      ],
      "name": "addFunding",
      "outputs": [],
      "payable": false,
      "stateMutability": "nonpayable",
      "type": "function"
    },
    {
      "constant": false,
      "inputs": [
        {
          "name": "sharesToBurn",
          "type": "uint256"
        }
      ],
      "name": "removeFunding",
      "outputs": [],
      "payable": false,
      "stateMutability": "nonpayable",
      "type": "function"
    },
    {
      "constant": false,
      "inputs": [
        {
          "name": "operator",
          "type": "address"
        },
        {
          "name": "from",
          "type": "address"
        },
        {
          "name": "id",
          "type": "uint256"
        },
        {
          "name": "value",
          "type": "uint256"
        },
        {
          "name": "data",
          "type": "bytes"
        }
      ],
      "name": "onERC1155Received",
      "outputs": [
        {
          "name": "",
          "type": "bytes4"
        }
      ],
      "payable": false,
      "stateMutability": "nonpayable",
      "type": "function"
    },
    {
      "constant": false,
      "inputs": [
        {
          "name": "operator",
          "type": "address"
        },
        {
          "name": "from",
          "type": "address"
        },
        {
          "name": "ids",
          "type": "uint256[]"
        },
        {
          "name": "values",
          "type": "uint256[]"
        },
        {
          "name": "data",
          "type": "bytes"
        }
      ],
      "name": "onERC1155BatchReceived",
      "outputs": [
        {
          "name": "",
          "type": "bytes4"
        }
      ],
      "payable": false,
      "stateMutability": "nonpayable",
      "type": "function"
    },
    {
      "constant": true,
      "inputs": [
        {
          "name": "investmentAmount",
          "type": "uint256"
        },
        {
          "name": "outcomeIndex",
          "type": "uint256"
        }
      ],
      "name": "calcBuyAmount",
      "outputs": [
        {
          "name": "",
          "type": "uint256"
        }
      ],
      "payable": false,
      "stateMutability": "view",
      "type": "function"
    },
    {
      "constant": true,
      "inputs": [
        {
          "name": "returnAmount",
          "type": "uint256"
        },
        {
          "name": "outcomeIndex",
          "type": "uint256"
        }
      ],
      "name": "calcSellAmount",
      "outputs": [
        {
          "name": "outcomeTokenSellAmount",
          "type": "uint256"
        }
      ],
      "payable": false,
      "stateMutability": "view",
      "type": "function"
    },
    {
      "constant": true,
      "inputs": [
        {
          "name": "outcomeTokensToSell",
          "type": "uint256"
        },
        {
          "name": "outcomeIndex",
          "type": "uint256"
        }
      ],
      "name": "calcReturnAmount",
      "outputs": [
        {
          "name": "returnAmount",
          "type": "uint256"
        }
      ],
      "payable": false,
      "stateMutability": "view",
      "type": "function"
    },
    {
      "constant": true,
      "inputs": [
        {
          "name": "outcomeTokensToSell",
          "type": "uint256"
        },
        {
          "name": "outcomeIndex",
          "type": "uint256"
        }
      ],
      "name": "calcPriceImpact",
      "outputs": [
        {
          "name": "",
          "type": "uint256"
        }
      ],
      "payable": false,
      "stateMutability": "view",
      "type": "function"
    },
    {
      "constant": true,
      "inputs": [
        {
          "name": "outcomeIndex",
          "type": "uint256"
        }
      ],
      "name": "getMaxSellAmount",
      "outputs": [
        {
          "name": "",
          "type": "uint256"
        }
      ],
      "payable": false,
      "stateMutability": "view",
      "type": "function"
    },
    {
      "constant": true,
      "inputs": [],
      "name": "calcPrice",
      "outputs": [
        {
          "name": "",
          "type": "uint256[]"
        }
      ],
      "payable": false,
      "stateMutability": "view",
      "type": "function"
    },
    {
      "constant": false,
      "inputs": [
        {
          "name": "investmentAmount",
          "type": "uint256"
        },
        {
          "name": "outcomeIndex",
          "type": "uint256"
        },
        {
          "name": "minOutcomeTokensToBuy",
          "type": "uint256"
        }
      ],
      "name": "buy",
      "outputs": [],
      "payable": false,
      "stateMutability": "nonpayable",
      "type": "function"
    },
    {
      "constant": false,
      "inputs": [
        {
          "name": "returnAmount",
          "type": "uint256"
        },
        {
          "name": "outcomeIndex",
          "type": "uint256"
        },
        {
          "name": "maxOutcomeTokensToSell",
          "type": "uint256"
        }
      ],
      "name": "sell",
      "outputs": [],
      "payable": false,
      "stateMutability": "nonpayable",
      "type": "function"
    },
    {
      "constant": true,
      "inputs": [],
      "name": "getPriceInfo",
      "outputs": [
        {
          "name": "price0",
          "type": "uint256"
        },
        {
          "name": "price1",
          "type": "uint256"
        },
        {
          "name": "balance0",
          "type": "uint256"
        },
        {
          "name": "balance1",
          "type": "uint256"
        }
      ],
      "payable": false,
      "stateMutability": "view",
      "type": "function"
    },
    {
      "constant": false,
      "inputs": [
        {
          "name": "outcomeTokensToSell",
          "type": "uint256"
        },
        {
          "name": "outcomeIndex",
          "type": "uint256"
        },
        {
          "name": "minReturnAmount",
          "type": "uint256"
        }
      ],
      "name": "sellOutcomeTokens",
      "outputs": [],
      "payable": false,
      "stateMutability": "nonpayable",
      "type": "function"
    }
  ],
  "bytecode": "0x6080604052620000387f01ffc9a7000000000000000000000000000000000000000000000000000000006001600160e01b036200007216565b6200006c7f4e2312e0000000000000000000000000000000000000000000000000000000006001600160e01b036200007216565b62000141565b7fffffffff0000000000000000000000000000000000000000000000000000000080821614156200010457604080517f08c379a000000000000000000000000000000000000000000000000000000000815260206004820152601c60248201527f4552433136353a20696e76616c696420696e7465726661636520696400000000604482015290519081900360640190fd5b7fffffffff00000000000000000000000000000000000000000000000000000000166000908152600360205260409020805460ff19166001179055565b61362b80620001516000396000f3fe608060405234801561001057600080fd5b50600436106101da5760003560e01c8063a457c2d711610104578063d98c4408116100a2578063f23a6e6111610071578063f23a6e6114610726578063f4f77d6d146107b9578063f55c79d0146107dc578063f8dde4b6146107ff576101da565b8063d98c44081461067b578063dd62ed3e146106d3578063ddca3f4314610701578063e03031a614610709576101da565b8063bc197c81116100de578063bc197c811461047c578063d3c9727c146105c0578063d5f15a46146105e9578063d8c55af71461065e576101da565b8063a457c2d71461041c578063a9059cbb14610448578063b2016bd414610474576101da565b8063330227bf1161017c5780635bd9e2991161014b5780635bd9e299146103a757806370a08231146103cb578063780d8918146103f15780639003adfe14610414576101da565b8063330227bf14610301578063395093511461032f57806340993b261461035b5780634343116a14610384576101da565b8063164e68de116101b8578063164e68de1461027557806316dbd7761461029d57806318160ddd146102c357806323b872dd146102cb576101da565b806301ffc9a7146101df57806307fc36331461021a578063095ea7b314610249575b600080fd5b610206600480360360208110156101f557600080fd5b50356001600160e01b031916610828565b604080519115158252519081900360200190f35b6102376004803603602081101561023057600080fd5b5035610847565b60408051918252519081900360200190f35b6102066004803603604081101561025f57600080fd5b506001600160a01b0381351690602001356108e1565b61029b6004803603602081101561028b57600080fd5b50356001600160a01b03166108f8565b005b610237600480360360208110156102b357600080fd5b50356001600160a01b0316610a66565b610237610ab3565b610206600480360360608110156102e157600080fd5b506001600160a01b03813581169160208101359091169060400135610ab9565b610309610b10565b604080519485526020850193909352838301919091526060830152519081900360800190f35b6102066004803603604081101561034557600080fd5b506001600160a01b038135169060200135610c8b565b61029b6004803603606081101561037157600080fd5b5080359060208101359060400135610cc7565b6102376004803603604081101561039a57600080fd5b508035906020013561102d565b6103af611204565b604080516001600160a01b039092168252519081900360200190f35b610237600480360360208110156103e157600080fd5b50356001600160a01b0316611213565b6102376004803603604081101561040757600080fd5b508035906020013561122e565b6102376114b0565b6102066004803603604081101561043257600080fd5b506001600160a01b0381351690602001356114ce565b6102066004803603604081101561045e57600080fd5b506001600160a01b03813516906020013561150a565b6103af611517565b6105a3600480360360a081101561049257600080fd5b6001600160a01b038235811692602081013590911691810190606081016040820135600160201b8111156104c557600080fd5b8201836020820111156104d757600080fd5b803590602001918460208302840111600160201b831117156104f857600080fd5b919390929091602081019035600160201b81111561051557600080fd5b82018360208201111561052757600080fd5b803590602001918460208302840111600160201b8311171561054857600080fd5b919390929091602081019035600160201b81111561056557600080fd5b82018360208201111561057757600080fd5b803590602001918460018302840111600160201b8311171561059857600080fd5b509092509050611526565b604080516001600160e01b03199092168252519081900360200190f35b61029b600480360360608110156105d657600080fd5b508035906020810135906040013561156a565b61029b600480360360408110156105ff57600080fd5b81359190810190604081016020820135600160201b81111561062057600080fd5b82018360208201111561063257600080fd5b803590602001918460208302840111600160201b8311171561065357600080fd5b509092509050611806565b6102376004803603602081101561067457600080fd5b5035611ebb565b610683611ed9565b60408051602080825283518183015283519192839290830191858101910280838360005b838110156106bf5781810151838201526020016106a7565b505050509050019250505060405180910390f35b610237600480360360408110156106e957600080fd5b506001600160a01b0381358116916020013516611eea565b610237611f15565b61029b6004803603602081101561071f57600080fd5b5035611f1b565b6105a3600480360360a081101561073c57600080fd5b6001600160a01b03823581169260208101359091169160408201359160608101359181019060a081016080820135600160201b81111561077b57600080fd5b82018360208201111561078d57600080fd5b803590602001918460018302840111600160201b831117156107ae57600080fd5b50909250905061225d565b610237600480360360408110156107cf57600080fd5b508035906020013561228c565b610237600480360360408110156107f257600080fd5b5080359060200135612354565b61029b6004803603606081101561081557600080fd5b50803590602081013590604001356124f1565b6001600160e01b03191660009081526003602052604090205460ff1690565b600060606108536127d6565b9050805183106108a2576040805162461bcd60e51b81526020600482015260156024820152740d2dcecc2d8d2c840deeae8c6dedaca40d2dcc8caf605b1b604482015290519081900360640190fd5b6108da60646108ce605a8487815181106108b857fe5b60200260200101516129a590919063ffffffff16565b9063ffffffff6129fe16565b9392505050565b60006108ee338484612a40565b5060015b92915050565b6000610902610ab3565b61091d61090e84611213565b6008549063ffffffff6129a516565b8161092457fe5b6001600160a01b0384166000908152600c60205260408120549290910492509061095590839063ffffffff612b2c16565b90508015610a61576001600160a01b0383166000908152600c60205260409020829055600d5461098b908263ffffffff612b6e16565b600d556005546040805163a9059cbb60e01b81526001600160a01b038681166004830152602482018590529151919092169163a9059cbb9160448083019260209291908290030181600087803b1580156109e457600080fd5b505af11580156109f8573d6000803e3d6000fd5b505050506040513d6020811015610a0e57600080fd5b5051610a61576040805162461bcd60e51b815260206004820152601a60248201527f7769746864726177616c207472616e73666572206661696c6564000000000000604482015290519081900360640190fd5b505050565b600080610a71610ab3565b610a7d61090e85611213565b81610a8457fe5b6001600160a01b0385166000908152600c602052604090205491900491506108da90829063ffffffff612b2c16565b60025490565b6000610ac6848484612bc8565b6001600160a01b038416600090815260016020908152604080832033808552925290912054610b06918691610b01908663ffffffff612b2c16565b612a40565b5060019392505050565b6000806000806060610b206127d6565b90508051600214610b6e576040805162461bcd60e51b8152602060048201526013602482015272139bdd081848189a5b985c9e481b585c9ad95d606a1b604482015290519081900360640190fd5b80600081518110610b7b57fe5b6020026020010151925080600181518110610b9257fe5b60200260200101519150600083118015610bac5750600082115b610bf5576040805162461bcd60e51b8152602060048201526015602482015274506f6f6c20686173207a65726f2062616c616e636560581b604482015290519081900360640190fd5b82820180670de0b6b3a7640000840281610c0b57fe5b0495508084670de0b6b3a76400000281610c2157fe5b049450670de0b6b3a76400018587011115610c83576040805162461bcd60e51b815260206004820152601760248201527f50726963652063616c63756c6174696f6e206572726f72000000000000000000604482015290519081900360640190fd5b505090919293565b3360008181526001602090815260408083206001600160a01b038716845290915281205490916108ee918590610b01908663ffffffff612b6e16565b6000610cd38484612354565b905081811015610d2a576040805162461bcd60e51b815260206004820152601e60248201527f6d696e696d756d2062757920616d6f756e74206e6f7420726561636865640000604482015290519081900360640190fd5b600554604080516323b872dd60e01b81523360048201523060248201526044810187905290516001600160a01b03909216916323b872dd916064808201926020929091908290030181600087803b158015610d8457600080fd5b505af1158015610d98573d6000803e3d6000fd5b505050506040513d6020811015610dae57600080fd5b5051610df8576040805162461bcd60e51b815260206004820152601460248201527318dbdcdd081d1c985b9cd9995c8819985a5b195960621b604482015290519081900360640190fd5b6000670de0b6b3a7640000610e18600754876129a590919063ffffffff16565b81610e1f57fe5b049050610e3781600854612b6e90919063ffffffff16565b6008556000610e4c868363ffffffff612b2c16565b600554600480546040805163095ea7b360e01b81526001600160a01b039283169381019390935260248301859052519394509091169163095ea7b3916044808201926020929091908290030181600087803b158015610eaa57600080fd5b505af1158015610ebe573d6000803e3d6000fd5b505050506040513d6020811015610ed457600080fd5b5051610f27576040805162461bcd60e51b815260206004820152601a60248201527f617070726f76616c20666f722073706c697473206661696c6564000000000000604482015290519081900360640190fd5b610f3081612d15565b600454600b80546001600160a01b039092169163f242432a9130913391908a908110610f5857fe5b6000918252602082200154604080516001600160e01b031960e088901b1681526001600160a01b03958616600482015293909416602484015260448301526064820188905260a0608483015260a48201819052915160e4808301939282900301818387803b158015610fc957600080fd5b505af1158015610fdd573d6000803e3d6000fd5b5050604080518981526020810186905280820187905290518893503392507f4f62630f51608fc8a7603a9391a5101e58bd7c276139366fc107dc3b67c3dcf89181900360600190a3505050505050565b600b54600090821061107e576040805162461bcd60e51b81526020600482015260156024820152740d2dcecc2d8d2c840deeae8c6dedaca40d2dcc8caf605b1b604482015290519081900360640190fd5b60606110886127d6565b905060006110a9600754670de0b6b3a7640000612b2c90919063ffffffff16565b6110c186670de0b6b3a764000063ffffffff6129a516565b816110c857fe5b04905060008285815181106110d957fe5b602002602001015190506000611100670de0b6b3a7640000836129a590919063ffffffff16565b905060005b845181101561116b5786811461116357600085828151811061112357fe5b6020026020010151905061115f6111438683612b2c90919063ffffffff16565b611153858463ffffffff6129a516565b9063ffffffff612ea416565b9250505b600101611105565b50600081116111c1576040805162461bcd60e51b815260206004820152601b60248201527f6d7573742068617665206e6f6e2d7a65726f2062616c616e6365730000000000604482015290519081900360640190fd5b6111f9826111ed6111e084670de0b6b3a764000063ffffffff612ea416565b869063ffffffff612b6e16565b9063ffffffff612b2c16565b979650505050505050565b6004546001600160a01b031681565b6001600160a01b031660009081526020819052604090205490565b600b54600090821061127f576040805162461bcd60e51b81526020600482015260156024820152740d2dcecc2d8d2c840deeae8c6dedaca40d2dcc8caf605b1b604482015290519081900360640190fd5b600083116112d0576040805162461bcd60e51b81526020600482015260196024820152781b5d5cdd081cd95b1b081c1bdcda5d1a5d9948185b5bdd5b9d603a1b604482015290519081900360640190fd5b60606112da6127d6565b905060008184815181106112ea57fe5b6020026020010151905060008090508251600214156113615760008515611312576000611315565b60015b60ff169050600084828151811061132857fe5b602002602001015190506113586113488986612b6e90919063ffffffff16565b6108ce838b63ffffffff6129a516565b925050506113c2565b508060005b83518110156113c0578581146113b857600084828151811061138457fe5b602002602001015190506113b46113a48983612b6e90919063ffffffff16565b6108ce858463ffffffff6129a516565b9250505b600101611366565b505b6113fb670de0b6b3a76400006108ce6113ee600754670de0b6b3a7640000612b2c90919063ffffffff16565b849063ffffffff6129a516565b935060008411611452576040805162461bcd60e51b815260206004820152601e60248201527f72657475726e20616d6f756e74206d75737420626520706f7369746976650000604482015290519081900360640190fd5b818411156114a7576040805162461bcd60e51b815260206004820152601960248201527f696e73756666696369656e7420706f6f6c2062616c616e636500000000000000604482015290519081900360640190fd5b50505092915050565b60006114c9600d54600854612b2c90919063ffffffff16565b905090565b3360008181526001602090815260408083206001600160a01b038716845290915281205490916108ee918590610b01908663ffffffff612b2c16565b60006108ee338484612bc8565b6005546001600160a01b031681565b60006001600160a01b0389163014801561154757506001600160a01b038816155b1561155a575063bc197c8160e01b61155e565b5060005b98975050505050505050565b6000611576848461102d565b9050818111156115cd576040805162461bcd60e51b815260206004820152601c60248201527f6d6178696d756d2073656c6c20616d6f756e7420657863656564656400000000604482015290519081900360640190fd5b600454600b80546001600160a01b039092169163f242432a913391309190889081106115f557fe5b6000918252602082200154604080516001600160e01b031960e088901b1681526001600160a01b03958616600482015293909416602484015260448301526064820186905260a0608483015260a48201819052915160e4808301939282900301818387803b15801561166657600080fd5b505af115801561167a573d6000803e3d6000fd5b50505050600061169d600754670de0b6b3a7640000612b2c90919063ffffffff16565b6007546116b190879063ffffffff6129a516565b816116b857fe5b0490506116d081600854612b6e90919063ffffffff16565b60085560006116e5868363ffffffff612b6e16565b90506116f081612ed4565b6005546040805163a9059cbb60e01b81523360048201526024810189905290516001600160a01b039092169163a9059cbb916044808201926020929091908290030181600087803b15801561174457600080fd5b505af1158015611758573d6000803e3d6000fd5b505050506040513d602081101561176e57600080fd5b50516117ba576040805162461bcd60e51b81526020600482015260166024820152751c995d1d5c9b881d1c985b9cd9995c8819985a5b195960521b604482015290519081900360640190fd5b60408051878152602081018490528082018590529051869133917fadcf2a240ed9300d681d9a3f5382b6c1beed1b7e46643e0c7b42cbe6e2d766b49181900360600190a3505050505050565b6000831161185b576040805162461bcd60e51b815260206004820152601860248201527f66756e64696e67206d757374206265206e6f6e2d7a65726f0000000000000000604482015290519081900360640190fd5b600b546040805182815260208084028201019091526060918015611889578160200160208202803883390190505b5090506000611896610ab3565b9050600081156119b65783156118dd5760405162461bcd60e51b815260040180806020018281038252603281526020018061353a6032913960400191505060405180910390fd5b60606118e76127d6565b90506000805b825181101561192357600083828151811061190457fe5b602002602001015190508083101561191a578092505b506001016118ed565b5060005b82518110156119935760008261195985848151811061194257fe5b60200260200101518c6129a590919063ffffffff16565b8161196057fe5b0490506119738a8263ffffffff612b2c16565b87838151811061197f57fe5b602090810291909101015250600101611927565b50806119a5898663ffffffff6129a516565b816119ac57fe5b0492505050611b05565b8315611b0257600b548414611a04576040805162461bcd60e51b815260206004820152600f60248201526e3434b73a103632b733ba341037b33360891b604482015290519081900360640190fd5b6000805b85811015611a3c576000878783818110611a1e57fe5b90506020020135905080831015611a33578092505b50600101611a08565b5060005b85811015611aff57600082611a70898985818110611a5a57fe5b905060200201358b6129a590919063ffffffff16565b81611a7757fe5b04905060008111611acf576040805162461bcd60e51b815260206004820152601e60248201527f6d7573742068696e7420612076616c696420646973747269627574696f6e0000604482015290519081900360640190fd5b611adf898263ffffffff612b2c16565b868381518110611aeb57fe5b602090810291909101015250600101611a40565b50505b50845b600554604080516323b872dd60e01b81523360048201523060248201526044810189905290516001600160a01b03909216916323b872dd916064808201926020929091908290030181600087803b158015611b5f57600080fd5b505af1158015611b73573d6000803e3d6000fd5b505050506040513d6020811015611b8957600080fd5b5051611bdc576040805162461bcd60e51b815260206004820152601760248201527f66756e64696e67207472616e73666572206661696c6564000000000000000000604482015290519081900360640190fd5b600554600480546040805163095ea7b360e01b81526001600160a01b0392831693810193909352602483018a90525192169163095ea7b3916044808201926020929091908290030181600087803b158015611c3657600080fd5b505af1158015611c4a573d6000803e3d6000fd5b505050506040513d6020811015611c6057600080fd5b5051611cb3576040805162461bcd60e51b815260206004820152601a60248201527f617070726f76616c20666f722073706c697473206661696c6564000000000000604482015290519081900360640190fd5b611cbc86612d15565b611cc6338261304b565b60048054604051631759616b60e11b815230928101838152336024830181905260a060448401908152600b805460a486018190526001600160a01b0390961696632eb2c2d6969095939491938b93916064820191608481019160c49091019087908015611d5257602002820191906000526020600020905b815481526020019060010190808311611d3e575b50508481038352855181528551602091820191808801910280838360005b83811015611d88578181015183820152602001611d70565b50505050905001848103825260008152602001602001975050505050505050600060405180830381600087803b158015611dc157600080fd5b505af1158015611dd5573d6000803e3d6000fd5b506000925050505b8351811015611e2b57611e0c848281518110611df557fe5b602002602001015188612b2c90919063ffffffff16565b848281518110611e1857fe5b6020908102919091010152600101611ddd565b50336001600160a01b03167fec2dc3e5a3bb9aa0a1deb905d2bd23640d07f107e6ceb484024501aad964a95184836040518080602001838152602001828103825284818151815260200191508051906020019060200280838360005b83811015611e9f578181015183820152602001611e87565b50505050905001935050505060405180910390a2505050505050565b60068181548110611ec857fe5b600091825260209091200154905081565b606080611ee46127d6565b90505090565b6001600160a01b03918216600090815260016020908152604080832093909416825291909152205490565b60075481565b6060611f256127d6565b905060608151604051908082528060200260200182016040528015611f54578160200160208202803883390190505b5090506000611f61610ab3565b905060005b8351811015611fa75781611f80868684815181106108b857fe5b81611f8757fe5b04838281518110611f9457fe5b6020908102919091010152600101611f66565b50600554604080516370a0823160e01b815230600482015290516000926001600160a01b0316916370a08231916024808301926020929190829003018186803b158015611ff357600080fd5b505afa158015612007573d6000803e3d6000fd5b505050506040513d602081101561201d57600080fd5b5051905061202b3386613147565b600554604080516370a0823160e01b815230600482015290516120b0926001600160a01b0316916370a08231916024808301926020929190829003018186803b15801561207757600080fd5b505afa15801561208b573d6000803e3d6000fd5b505050506040513d60208110156120a157600080fd5b5051829063ffffffff612b2c16565b60048054604051631759616b60e11b815230928101838152336024830181905260a060448401908152600b805460a486018190529798506001600160a01b0390951696632eb2c2d69695929492938b939092916064820191608481019160c4909101908790801561214057602002820191906000526020600020905b81548152602001906001019080831161212c575b50508481038352855181528551602091820191808801910280838360005b8381101561217657818101518382015260200161215e565b50505050905001848103825260008152602001602001975050505050505050600060405180830381600087803b1580156121af57600080fd5b505af11580156121c3573d6000803e3d6000fd5b50505050336001600160a01b03167f8b4b2c8ebd04c47fc8bce136a85df9b93fcb1f47c8aa296457d4391519d190e78483886040518080602001848152602001838152602001828103825285818151815260200191508051906020019060200280838360005b83811015612241578181015183820152602001612229565b5050505090500194505050505060405180910390a25050505050565b60006001600160a01b03871630141561227e575063f23a6e6160e01b612282565b5060005b9695505050505050565b600060606122986127d6565b905060008184815181106122a857fe5b6020026020010151905060006122d3826108ce670de0b6b3a76400008689600103815181106108b857fe5b905060006122e1878761122e565b905060006123396122f8858a63ffffffff612b6e16565b6108ce670de0b6b3a764000061232d868a8d6001038151811061231757fe5b6020026020010151612b2c90919063ffffffff16565b9063ffffffff6129a516565b905061155e836108ce606461232d838663ffffffff612b2c16565b600b5460009082106123a5576040805162461bcd60e51b81526020600482015260156024820152740d2dcecc2d8d2c840deeae8c6dedaca40d2dcc8caf605b1b604482015290519081900360640190fd5b60606123af6127d6565b905060006123ea670de0b6b3a76400006123d4600754886129a590919063ffffffff16565b816123db57fe5b8791900463ffffffff612b2c16565b905060008285815181106123fa57fe5b602002602001015190506000612421670de0b6b3a7640000836129a590919063ffffffff16565b905060005b84518110156124705786811461246857600085828151811061244457fe5b602002602001015190506124646111438683612b6e90919063ffffffff16565b9250505b600101612426565b50600081116124c6576040805162461bcd60e51b815260206004820152601b60248201527f6d7573742068617665206e6f6e2d7a65726f2062616c616e6365730000000000604482015290519081900360640190fd5b6111f96124e182670de0b6b3a764000063ffffffff612ea416565b6111ed848663ffffffff612b6e16565b60008311612542576040805162461bcd60e51b81526020600482015260196024820152781b5d5cdd081cd95b1b081c1bdcda5d1a5d9948185b5bdd5b9d603a1b604482015290519081900360640190fd5b600061254e848461122e565b90508181101561259d576040805162461bcd60e51b815260206004820152601560248201527472657475726e20616d6f756e7420746f6f206c6f7760581b604482015290519081900360640190fd5b600454600b80546001600160a01b039092169163f242432a913391309190889081106125c557fe5b6000918252602082200154604080516001600160e01b031960e088901b1681526001600160a01b03958616600482015293909416602484015260448301526064820189905260a0608483015260a48201819052915160e4808301939282900301818387803b15801561263657600080fd5b505af115801561264a573d6000803e3d6000fd5b50505050600061266d600754670de0b6b3a7640000612b2c90919063ffffffff16565b60075461268190849063ffffffff6129a516565b8161268857fe5b0490506126a081600854612b6e90919063ffffffff16565b60085560006126b5838363ffffffff612b6e16565b90506126c081612ed4565b6005546040805163a9059cbb60e01b81523360048201526024810186905290516001600160a01b039092169163a9059cbb916044808201926020929091908290030181600087803b15801561271457600080fd5b505af1158015612728573d6000803e3d6000fd5b505050506040513d602081101561273e57600080fd5b505161278a576040805162461bcd60e51b81526020600482015260166024820152751c995d1d5c9b881d1c985b9cd9995c8819985a5b195960521b604482015290519081900360640190fd5b60408051848152602081018490528082018890529051869133917fadcf2a240ed9300d681d9a3f5382b6c1beed1b7e46643e0c7b42cbe6e2d766b49181900360600190a3505050505050565b606080600b80549050604051908082528060200260200182016040528015612808578160200160208202803883390190505b50905060005b600b54811015612845573082828151811061282557fe5b6001600160a01b039092166020928302919091019091015260010161280e565b5060048054604080516313849cfd60e21b81529283019081528351604484015283516001600160a01b0390921692634e1273f4928592600b929091829160248101916064909101906020808801910280838360005b838110156128b257818101518382015260200161289a565b5050505090500183810382528481815481526020019150805480156128f657602002820191906000526020600020905b8154815260200190600101908083116128e2575b505094505050505060006040518083038186803b15801561291657600080fd5b505afa15801561292a573d6000803e3d6000fd5b505050506040513d6000823e601f3d908101601f19168201604052602081101561295357600080fd5b810190808051600160201b81111561296a57600080fd5b8201602081018481111561297d57600080fd5b81518560208202830111600160201b8211171561299957600080fd5b50909550505050505090565b6000826129b4575060006108f2565b828202828482816129c157fe5b04146108da5760405162461bcd60e51b815260040180806020018281038252602181526020018061356c6021913960400191505060405180910390fd5b60006108da83836040518060400160405280601a81526020017f536166654d6174683a206469766973696f6e206279207a65726f000000000000815250613235565b6001600160a01b038316612a855760405162461bcd60e51b81526004018080602001828103825260248152602001806135d36024913960400191505060405180910390fd5b6001600160a01b038216612aca5760405162461bcd60e51b81526004018080602001828103825260228152602001806135186022913960400191505060405180910390fd5b6001600160a01b03808416600081815260016020908152604080832094871680845294825291829020859055815185815291517f8c5be1e5ebec7d5bd14f71427d1e84f3dd0314c0f7b2291e5b200ac8c7c3b9259281900390910190a3505050565b60006108da83836040518060400160405280601e81526020017f536166654d6174683a207375627472616374696f6e206f766572666c6f7700008152506132d7565b6000828201838110156108da576040805162461bcd60e51b815260206004820152601b60248201527f536166654d6174683a206164646974696f6e206f766572666c6f770000000000604482015290519081900360640190fd5b6001600160a01b038316612c0d5760405162461bcd60e51b81526004018080602001828103825260258152602001806135ae6025913960400191505060405180910390fd5b6001600160a01b038216612c525760405162461bcd60e51b81526004018080602001828103825260238152602001806134f56023913960400191505060405180910390fd5b612c5d838383613331565b6001600160a01b038316600090815260208190526040902054612c86908263ffffffff612b2c16565b6001600160a01b038085166000908152602081905260408082209390935590841681522054612cbb908263ffffffff612b6e16565b6001600160a01b038084166000818152602081815260409182902094909455805185815290519193928716927fddf252ad1be2c89b69c2b068fc378daa952ba7f163c4a11628f55a4df523b3ef92918290030190a3505050565b600654600019015b60008112612ea0576060612d4760098381548110612d3757fe5b9060005260206000200154613490565b905060005b600a8381548110612d5957fe5b600091825260209091200154811015612e9557600454600554600a80546001600160a01b03938416936372ce42759316919087908110612d9557fe5b906000526020600020018481548110612daa57fe5b906000526020600020015460068781548110612dc257fe5b906000526020600020015486896040518663ffffffff1660e01b815260040180866001600160a01b03166001600160a01b0316815260200185815260200184815260200180602001838152602001828103825284818151815260200191508051906020019060200280838360005b83811015612e48578181015183820152602001612e30565b505050509050019650505050505050600060405180830381600087803b158015612e7157600080fd5b505af1158015612e85573d6000803e3d6000fd5b505060019092019150612d4c9050565b505060001901612d1d565b5050565b60008215612ec357816001840381612eb857fe5b0460010190506108f2565b818381612ecc57fe5b049392505050565b60005b600654811015612ea0576060612ef360098381548110612d3757fe5b905060005b600a8381548110612f0557fe5b60009182526020909120015481101561304157600454600554600a80546001600160a01b0393841693639e7212ad9316919087908110612f4157fe5b906000526020600020018481548110612f5657fe5b906000526020600020015460068781548110612f6e57fe5b906000526020600020015486896040518663ffffffff1660e01b815260040180866001600160a01b03166001600160a01b0316815260200185815260200184815260200180602001838152602001828103825284818151815260200191508051906020019060200280838360005b83811015612ff4578181015183820152602001612fdc565b505050509050019650505050505050600060405180830381600087803b15801561301d57600080fd5b505af1158015613031573d6000803e3d6000fd5b505060019092019150612ef89050565b5050600101612ed7565b6001600160a01b0382166130a6576040805162461bcd60e51b815260206004820152601f60248201527f45524332303a206d696e7420746f20746865207a65726f206164647265737300604482015290519081900360640190fd5b6130b260008383613331565b6002546130c5908263ffffffff612b6e16565b6002556001600160a01b0382166000908152602081905260409020546130f1908263ffffffff612b6e16565b6001600160a01b0383166000818152602081815260408083209490945583518581529351929391927fddf252ad1be2c89b69c2b068fc378daa952ba7f163c4a11628f55a4df523b3ef9281900390910190a35050565b6001600160a01b03821661318c5760405162461bcd60e51b815260040180806020018281038252602181526020018061358d6021913960400191505060405180910390fd5b61319882600083613331565b6001600160a01b0382166000908152602081905260409020546131c1908263ffffffff612b2c16565b6001600160a01b0383166000908152602081905260409020556002546131ed908263ffffffff612b2c16565b6002556040805182815290516000916001600160a01b038516917fddf252ad1be2c89b69c2b068fc378daa952ba7f163c4a11628f55a4df523b3ef9181900360200190a35050565b600081836132c15760405162461bcd60e51b81526004018080602001828103825283818151815260200191508051906020019080838360005b8381101561328657818101518382015260200161326e565b50505050905090810190601f1680156132b35780820380516001836020036101000a031916815260200191505b509250505060405180910390fd5b5060008385816132cd57fe5b0495945050505050565b600081848411156133295760405162461bcd60e51b815260206004820181815283516024840152835190928392604490910191908501908083836000831561328657818101518382015260200161326e565b505050900390565b6001600160a01b0383161561334957613349836108f8565b6000613353610ab3565b90506000811561337f576008548290613372908563ffffffff6129a516565b8161337957fe5b04613381565b825b90506001600160a01b038516156133ef576001600160a01b0385166000908152600c60205260409020546133bb908263ffffffff612b2c16565b6001600160a01b0386166000908152600c6020526040902055600d546133e7908263ffffffff612b2c16565b600d55613406565b600854613402908263ffffffff612b6e16565b6008555b6001600160a01b03841615613472576001600160a01b0384166000908152600c602052604090205461343e908263ffffffff612b6e16565b6001600160a01b0385166000908152600c6020526040902055600d5461346a908263ffffffff612b6e16565b600d55613489565b600854613485908263ffffffff612b2c16565b6008555b5050505050565b6060816040519080825280602002602001820160405280156134bc578160200160208202803883390190505b50905060005b828110156134ee57806001901b8282815181106134db57fe5b60209081029190910101526001016134c2565b5091905056fe45524332303a207472616e7366657220746f20746865207a65726f206164647265737345524332303a20617070726f766520746f20746865207a65726f206164647265737363616e6e6f742075736520646973747269627574696f6e2068696e7420616674657220696e697469616c2066756e64696e67536166654d6174683a206d756c7469706c69636174696f6e206f766572666c6f7745524332303a206275726e2066726f6d20746865207a65726f206164647265737345524332303a207472616e736665722066726f6d20746865207a65726f206164647265737345524332303a20617070726f76652066726f6d20746865207a65726f2061646472657373a265627a7a72305820d34244441a22262bf670afdae20d1c5d74834764a790a1e3c1945be790c2a4cb64736f6c634300050a0032",
  "source": "pragma solidity ^0.5.1;\n\nimport {SafeMath} from \"openzeppelin-solidity/contracts/math/SafeMath.sol\";\nimport {IERC20} from \"openzeppelin-solidity/contracts/token/ERC20/IERC20.sol\";\nimport {ConditionalTokens} from \"@gnosis.pm/conditional-tokens-contracts/contracts/ConditionalTokens.sol\";\nimport {CTHelpers} from \"@gnosis.pm/conditional-tokens-contracts/contracts/CTHelpers.sol\";\nimport {ERC1155TokenReceiver} from \"@gnosis.pm/conditional-tokens-contracts/contracts/ERC1155/ERC1155TokenReceiver.sol\";\nimport {ERC20} from \"./ERC20.sol\";\n\nlibrary CeilDiv {\n    // calculates ceil(x/y)\n    function ceildiv(uint x, uint y) internal pure returns (uint) {\n        if (x > 0) return ((x - 1) / y) + 1;\n        return x / y;\n    }\n}\n\ncontract FixedProductMarketMaker is ERC20, ERC1155TokenReceiver {\n    event FPMMFundingAdded(\n        address indexed funder,\n        uint[] amountsAdded,\n        uint sharesMinted\n    );\n    event FPMMFundingRemoved(\n        address indexed funder,\n        uint[] amountsRemoved,\n        uint collateralRemovedFromFeePool,\n        uint sharesBurnt\n    );\n    event FPMMBuy(\n        address indexed buyer,\n        uint investmentAmount,\n        uint feeAmount,\n        uint indexed outcomeIndex,\n        uint outcomeTokensBought\n    );\n    event FPMMSell(\n        address indexed seller,\n        uint returnAmount,\n        uint feeAmount,\n        uint indexed outcomeIndex,\n        uint outcomeTokensSold\n    );\n\n    struct PriceInfo {\n        uint256 price0; // Price for outcome 0 (No)\n        uint256 price1; // Price for outcome 1 (Yes)\n        uint256 balance0; // Pool balance for outcome 0\n        uint256 balance1; // Pool balance for outcome 1\n    }\n\n    using SafeMath for uint;\n    using CeilDiv for uint;\n\n    uint constant ONE = 10 ** 18;\n\n    ConditionalTokens public conditionalTokens;\n    IERC20 public collateralToken;\n    bytes32[] public conditionIds;\n    uint public fee;\n    uint internal feePoolWeight;\n\n    uint[] outcomeSlotCounts;\n    bytes32[][] collectionIds;\n    uint[] positionIds;\n    mapping(address => uint256) withdrawnFees;\n    uint internal totalWithdrawnFees;\n\n    function getPoolBalances() private view returns (uint[] memory) {\n        address[] memory thises = new address[](positionIds.length);\n        for (uint i = 0; i < positionIds.length; i++) {\n            thises[i] = address(this);\n        }\n        return conditionalTokens.balanceOfBatch(thises, positionIds);\n    }\n\n    function generateBasicPartition(\n        uint outcomeSlotCount\n    ) private pure returns (uint[] memory partition) {\n        partition = new uint[](outcomeSlotCount);\n        for (uint i = 0; i < outcomeSlotCount; i++) {\n            partition[i] = 1 << i;\n        }\n    }\n\n    function splitPositionThroughAllConditions(uint amount) private {\n        for (uint i = conditionIds.length - 1; int(i) >= 0; i--) {\n            uint[] memory partition = generateBasicPartition(\n                outcomeSlotCounts[i]\n            );\n            for (uint j = 0; j < collectionIds[i].length; j++) {\n                conditionalTokens.splitPosition(\n                    collateralToken,\n                    collectionIds[i][j],\n                    conditionIds[i],\n                    partition,\n                    amount\n                );\n            }\n        }\n    }\n\n    function mergePositionsThroughAllConditions(uint amount) private {\n        for (uint i = 0; i < conditionIds.length; i++) {\n            uint[] memory partition = generateBasicPartition(\n                outcomeSlotCounts[i]\n            );\n            for (uint j = 0; j < collectionIds[i].length; j++) {\n                conditionalTokens.mergePositions(\n                    collateralToken,\n                    collectionIds[i][j],\n                    conditionIds[i],\n                    partition,\n                    amount\n                );\n            }\n        }\n    }\n\n    function collectedFees() external view returns (uint) {\n        return feePoolWeight.sub(totalWithdrawnFees);\n    }\n\n    function feesWithdrawableBy(address account) public view returns (uint) {\n        uint rawAmount = feePoolWeight.mul(balanceOf(account)) / totalSupply();\n        return rawAmount.sub(withdrawnFees[account]);\n    }\n\n    function withdrawFees(address account) public {\n        uint rawAmount = feePoolWeight.mul(balanceOf(account)) / totalSupply();\n        uint withdrawableAmount = rawAmount.sub(withdrawnFees[account]);\n        if (withdrawableAmount > 0) {\n            withdrawnFees[account] = rawAmount;\n            totalWithdrawnFees = totalWithdrawnFees.add(withdrawableAmount);\n            require(\n                collateralToken.transfer(account, withdrawableAmount),\n                \"withdrawal transfer failed\"\n            );\n        }\n    }\n\n    function _beforeTokenTransfer(\n        address from,\n        address to,\n        uint256 amount\n    ) internal {\n        if (from != address(0)) {\n            withdrawFees(from);\n        }\n\n        uint totalSupply = totalSupply();\n        uint withdrawnFeesTransfer = totalSupply == 0\n            ? amount\n            : feePoolWeight.mul(amount) / totalSupply;\n\n        if (from != address(0)) {\n            withdrawnFees[from] = withdrawnFees[from].sub(\n                withdrawnFeesTransfer\n            );\n            totalWithdrawnFees = totalWithdrawnFees.sub(withdrawnFeesTransfer);\n        } else {\n            feePoolWeight = feePoolWeight.add(withdrawnFeesTransfer);\n        }\n        if (to != address(0)) {\n            withdrawnFees[to] = withdrawnFees[to].add(withdrawnFeesTransfer);\n            totalWithdrawnFees = totalWithdrawnFees.add(withdrawnFeesTransfer);\n        } else {\n            feePoolWeight = feePoolWeight.sub(withdrawnFeesTransfer);\n        }\n    }\n\n    function addFunding(\n        uint addedFunds,\n        uint[] calldata distributionHint\n    ) external {\n        require(addedFunds > 0, \"funding must be non-zero\");\n\n        uint[] memory sendBackAmounts = new uint[](positionIds.length);\n        uint poolShareSupply = totalSupply();\n        uint mintAmount;\n        if (poolShareSupply > 0) {\n            require(\n                distributionHint.length == 0,\n                \"cannot use distribution hint after initial funding\"\n            );\n            uint[] memory poolBalances = getPoolBalances();\n            uint poolWeight = 0;\n            for (uint i = 0; i < poolBalances.length; i++) {\n                uint balance = poolBalances[i];\n                if (poolWeight < balance) poolWeight = balance;\n            }\n\n            for (uint i = 0; i < poolBalances.length; i++) {\n                uint remaining = addedFunds.mul(poolBalances[i]) / poolWeight;\n                sendBackAmounts[i] = addedFunds.sub(remaining);\n            }\n\n            mintAmount = addedFunds.mul(poolShareSupply) / poolWeight;\n        } else {\n            if (distributionHint.length > 0) {\n                require(\n                    distributionHint.length == positionIds.length,\n                    \"hint length off\"\n                );\n                uint maxHint = 0;\n                for (uint i = 0; i < distributionHint.length; i++) {\n                    uint hint = distributionHint[i];\n                    if (maxHint < hint) maxHint = hint;\n                }\n\n                for (uint i = 0; i < distributionHint.length; i++) {\n                    uint remaining = addedFunds.mul(distributionHint[i]) /\n                        maxHint;\n                    require(remaining > 0, \"must hint a valid distribution\");\n                    sendBackAmounts[i] = addedFunds.sub(remaining);\n                }\n            }\n\n            mintAmount = addedFunds;\n        }\n\n        require(\n            collateralToken.transferFrom(msg.sender, address(this), addedFunds),\n            \"funding transfer failed\"\n        );\n        require(\n            collateralToken.approve(address(conditionalTokens), addedFunds),\n            \"approval for splits failed\"\n        );\n        splitPositionThroughAllConditions(addedFunds);\n\n        _mint(msg.sender, mintAmount);\n\n        conditionalTokens.safeBatchTransferFrom(\n            address(this),\n            msg.sender,\n            positionIds,\n            sendBackAmounts,\n            \"\"\n        );\n\n        // transform sendBackAmounts to array of amounts added\n        for (uint i = 0; i < sendBackAmounts.length; i++) {\n            sendBackAmounts[i] = addedFunds.sub(sendBackAmounts[i]);\n        }\n\n        emit FPMMFundingAdded(msg.sender, sendBackAmounts, mintAmount);\n    }\n\n    function removeFunding(uint sharesToBurn) external {\n        uint[] memory poolBalances = getPoolBalances();\n\n        uint[] memory sendAmounts = new uint[](poolBalances.length);\n\n        uint poolShareSupply = totalSupply();\n        for (uint i = 0; i < poolBalances.length; i++) {\n            sendAmounts[i] =\n                poolBalances[i].mul(sharesToBurn) /\n                poolShareSupply;\n        }\n\n        uint collateralRemovedFromFeePool = collateralToken.balanceOf(\n            address(this)\n        );\n\n        _burn(msg.sender, sharesToBurn);\n        collateralRemovedFromFeePool = collateralRemovedFromFeePool.sub(\n            collateralToken.balanceOf(address(this))\n        );\n\n        conditionalTokens.safeBatchTransferFrom(\n            address(this),\n            msg.sender,\n            positionIds,\n            sendAmounts,\n            \"\"\n        );\n\n        emit FPMMFundingRemoved(\n            msg.sender,\n            sendAmounts,\n            collateralRemovedFromFeePool,\n            sharesToBurn\n        );\n    }\n\n    function onERC1155Received(\n        address operator,\n        address from,\n        uint256 id,\n        uint256 value,\n        bytes calldata data\n    ) external returns (bytes4) {\n        if (operator == address(this)) {\n            return this.onERC1155Received.selector;\n        }\n        return 0x0;\n    }\n\n    function onERC1155BatchReceived(\n        address operator,\n        address from,\n        uint256[] calldata ids,\n        uint256[] calldata values,\n        bytes calldata data\n    ) external returns (bytes4) {\n        if (operator == address(this) && from == address(0)) {\n            return this.onERC1155BatchReceived.selector;\n        }\n        return 0x0;\n    }\n\n    function calcBuyAmount(\n        uint investmentAmount,\n        uint outcomeIndex\n    ) public view returns (uint) {\n        require(outcomeIndex < positionIds.length, \"invalid outcome index\");\n\n        uint[] memory poolBalances = getPoolBalances();\n        uint investmentAmountMinusFees = investmentAmount.sub(\n            investmentAmount.mul(fee) / ONE\n        );\n        uint buyTokenPoolBalance = poolBalances[outcomeIndex];\n        uint endingOutcomeBalance = buyTokenPoolBalance.mul(ONE);\n        for (uint i = 0; i < poolBalances.length; i++) {\n            if (i != outcomeIndex) {\n                uint poolBalance = poolBalances[i];\n                endingOutcomeBalance = endingOutcomeBalance\n                    .mul(poolBalance)\n                    .ceildiv(poolBalance.add(investmentAmountMinusFees));\n            }\n        }\n        require(endingOutcomeBalance > 0, \"must have non-zero balances\");\n\n        return\n            buyTokenPoolBalance.add(investmentAmountMinusFees).sub(\n                endingOutcomeBalance.ceildiv(ONE)\n            );\n    }\n\n    function calcSellAmount(\n        uint returnAmount,\n        uint outcomeIndex\n    ) public view returns (uint outcomeTokenSellAmount) {\n        require(outcomeIndex < positionIds.length, \"invalid outcome index\");\n\n        uint[] memory poolBalances = getPoolBalances();\n        uint returnAmountPlusFees = returnAmount.mul(ONE) / ONE.sub(fee);\n        uint sellTokenPoolBalance = poolBalances[outcomeIndex];\n        uint endingOutcomeBalance = sellTokenPoolBalance.mul(ONE);\n        for (uint i = 0; i < poolBalances.length; i++) {\n            if (i != outcomeIndex) {\n                uint poolBalance = poolBalances[i];\n                endingOutcomeBalance = endingOutcomeBalance\n                    .mul(poolBalance)\n                    .ceildiv(poolBalance.sub(returnAmountPlusFees));\n            }\n        }\n        require(endingOutcomeBalance > 0, \"must have non-zero balances\");\n\n        return\n            returnAmountPlusFees.add(endingOutcomeBalance.ceildiv(ONE)).sub(\n                sellTokenPoolBalance\n            );\n    }\n\n    function calcReturnAmount(\n        uint outcomeTokensToSell,\n        uint outcomeIndex\n    ) public view returns (uint returnAmount) {\n        require(outcomeIndex < positionIds.length, \"invalid outcome index\");\n        require(outcomeTokensToSell > 0, \"must sell positive amount\");\n\n        // Get current pool balances\n        uint[] memory poolBalances = getPoolBalances();\n        uint sellTokenPoolBalance = poolBalances[outcomeIndex];\n\n        // Calculate return amount using constant product formula\n        uint returnAmountPlusFees = 0;\n\n        if (poolBalances.length == 2) {\n            // Optimization for binary markets\n            uint otherIndex = outcomeIndex == 0 ? 1 : 0;\n            uint otherBalance = poolBalances[otherIndex];\n\n            // Apply formula: b = (a * y) / (x + a)\n            returnAmountPlusFees = otherBalance.mul(outcomeTokensToSell).div(\n                sellTokenPoolBalance.add(outcomeTokensToSell)\n            );\n        } else {\n            // For markets with more than 2 outcomes\n            returnAmountPlusFees = sellTokenPoolBalance;\n\n            for (uint i = 0; i < poolBalances.length; i++) {\n                if (i != outcomeIndex) {\n                    uint poolBalance = poolBalances[i];\n                    returnAmountPlusFees = returnAmountPlusFees\n                        .mul(poolBalance)\n                        .div(poolBalance.add(outcomeTokensToSell));\n                }\n            }\n        }\n\n        // Apply fees\n        returnAmount = returnAmountPlusFees.mul(ONE.sub(fee)).div(ONE);\n\n        require(returnAmount > 0, \"return amount must be positive\");\n        require(\n            returnAmount <= sellTokenPoolBalance,\n            \"insufficient pool balance\"\n        );\n    }\n\n    function calcPriceImpact(\n        uint outcomeTokensToSell,\n        uint outcomeIndex\n    ) public view returns (uint) {\n        uint[] memory poolBalances = getPoolBalances();\n        uint sellTokenPoolBalance = poolBalances[outcomeIndex];\n\n        // Calculate price before trade\n        uint priceBefore = poolBalances[1 - outcomeIndex].mul(ONE).div(\n            sellTokenPoolBalance\n        );\n\n        // Calculate price after trade\n        uint returnAmount = calcReturnAmount(outcomeTokensToSell, outcomeIndex);\n        uint priceAfter = poolBalances[1 - outcomeIndex]\n            .sub(returnAmount)\n            .mul(ONE)\n            .div(sellTokenPoolBalance.add(outcomeTokensToSell));\n\n        // Calculate price impact as percentage\n        return priceBefore.sub(priceAfter).mul(100).div(priceBefore);\n    }\n\n    function getMaxSellAmount(uint outcomeIndex) public view returns (uint) {\n        uint[] memory poolBalances = getPoolBalances();\n        require(outcomeIndex < poolBalances.length, \"invalid outcome index\");\n\n        // Maximum sell amount is typically 90% of current pool balance\n        // to maintain some liquidity and prevent extreme price impact\n        return poolBalances[outcomeIndex].mul(90).div(100);\n    }\n\n    function calcPrice() public view returns (uint[] memory) {\n        uint[] memory poolBalances = getPoolBalances();\n    }\n\n    function buy(\n        uint investmentAmount,\n        uint outcomeIndex,\n        uint minOutcomeTokensToBuy\n    ) external {\n        uint outcomeTokensToBuy = calcBuyAmount(investmentAmount, outcomeIndex);\n        require(\n            outcomeTokensToBuy >= minOutcomeTokensToBuy,\n            \"minimum buy amount not reached\"\n        );\n\n        require(\n            collateralToken.transferFrom(\n                msg.sender,\n                address(this),\n                investmentAmount\n            ),\n            \"cost transfer failed\"\n        );\n\n        uint feeAmount = investmentAmount.mul(fee) / ONE;\n        feePoolWeight = feePoolWeight.add(feeAmount);\n        uint investmentAmountMinusFees = investmentAmount.sub(feeAmount);\n        require(\n            collateralToken.approve(\n                address(conditionalTokens),\n                investmentAmountMinusFees\n            ),\n            \"approval for splits failed\"\n        );\n        splitPositionThroughAllConditions(investmentAmountMinusFees);\n\n        conditionalTokens.safeTransferFrom(\n            address(this),\n            msg.sender,\n            positionIds[outcomeIndex],\n            outcomeTokensToBuy,\n            \"\"\n        );\n\n        emit FPMMBuy(\n            msg.sender,\n            investmentAmount,\n            feeAmount,\n            outcomeIndex,\n            outcomeTokensToBuy\n        );\n    }\n\n    function sell(\n        uint returnAmount,\n        uint outcomeIndex,\n        uint maxOutcomeTokensToSell\n    ) external {\n        uint outcomeTokensToSell = calcSellAmount(returnAmount, outcomeIndex);\n        require(\n            outcomeTokensToSell <= maxOutcomeTokensToSell,\n            \"maximum sell amount exceeded\"\n        );\n\n        conditionalTokens.safeTransferFrom(\n            msg.sender,\n            address(this),\n            positionIds[outcomeIndex],\n            outcomeTokensToSell,\n            \"\"\n        );\n\n        uint feeAmount = returnAmount.mul(fee) / (ONE.sub(fee));\n        feePoolWeight = feePoolWeight.add(feeAmount);\n        uint returnAmountPlusFees = returnAmount.add(feeAmount);\n        mergePositionsThroughAllConditions(returnAmountPlusFees);\n\n        require(\n            collateralToken.transfer(msg.sender, returnAmount),\n            \"return transfer failed\"\n        );\n\n        emit FPMMSell(\n            msg.sender,\n            returnAmount,\n            feeAmount,\n            outcomeIndex,\n            outcomeTokensToSell\n        );\n    }\n\n    function getPriceInfo()\n        public\n        view\n        returns (\n            uint256 price0,\n            uint256 price1,\n            uint256 balance0,\n            uint256 balance1\n        )\n    {\n        // Get pool balances\n        uint[] memory poolBalances = getPoolBalances();\n        require(poolBalances.length == 2, \"Not a binary market\");\n\n        balance0 = poolBalances[0];\n        balance1 = poolBalances[1];\n\n        // Check for zero balances\n        require(balance0 > 0 && balance1 > 0, \"Pool has zero balance\");\n\n        uint256 totalBalance = balance0 + balance1;\n\n        // Safe price calculation with 18 decimal precision\n        price0 = (balance1 * 1e18) / totalBalance;\n        price1 = (balance0 * 1e18) / totalBalance;\n\n        // Verify prices sum to 1 (within rounding)\n        require(price0 + price1 <= 1e18 + 1, \"Price calculation error\");\n\n        return (price0, price1, balance0, balance1);\n    }\n\n    function sellOutcomeTokens(\n        uint outcomeTokensToSell,\n        uint outcomeIndex,\n        uint minReturnAmount\n    ) external {\n        require(outcomeTokensToSell > 0, \"must sell positive amount\");\n\n        // Calculate how much collateral should be returned\n        uint returnAmount = calcReturnAmount(outcomeTokensToSell, outcomeIndex);\n        require(returnAmount >= minReturnAmount, \"return amount too low\");\n\n        // Transfer outcome tokens from seller to contract\n        conditionalTokens.safeTransferFrom(\n            msg.sender,\n            address(this),\n            positionIds[outcomeIndex],\n            outcomeTokensToSell,\n            \"\"\n        );\n\n        // Calculate fee amount\n        uint feeAmount = returnAmount.mul(fee) / (ONE.sub(fee));\n        feePoolWeight = feePoolWeight.add(feeAmount);\n\n        // Merge positions to get back collateral tokens\n        uint returnAmountPlusFees = returnAmount.add(feeAmount);\n        mergePositionsThroughAllConditions(returnAmountPlusFees);\n\n        // Transfer collateral tokens back to seller\n        require(\n            collateralToken.transfer(msg.sender, returnAmount),\n            \"return transfer failed\"\n        );\n\n        emit FPMMSell(\n            msg.sender,\n            returnAmount,\n            feeAmount,\n            outcomeIndex,\n            outcomeTokensToSell\n        );\n    }\n}\n\n// for proxying purposes\ncontract FixedProductMarketMakerData {\n    mapping(address => uint256) internal _balances;\n    mapping(address => mapping(address => uint256)) internal _allowances;\n    uint256 internal _totalSupply;\n\n    bytes4 internal constant _INTERFACE_ID_ERC165 = 0x01ffc9a7;\n    mapping(bytes4 => bool) internal _supportedInterfaces;\n\n    event FPMMFundingAdded(\n        address indexed funder,\n        uint[] amountsAdded,\n        uint sharesMinted\n    );\n    event FPMMFundingRemoved(\n        address indexed funder,\n        uint[] amountsRemoved,\n        uint collateralRemovedFromFeePool,\n        uint sharesBurnt\n    );\n    event FPMMBuy(\n        address indexed buyer,\n        uint investmentAmount,\n        uint feeAmount,\n        uint indexed outcomeIndex,\n        uint outcomeTokensBought\n    );\n    event FPMMSell(\n        address indexed seller,\n        uint returnAmount,\n        uint feeAmount,\n        uint indexed outcomeIndex,\n        uint outcomeTokensSold\n    );\n    ConditionalTokens internal conditionalTokens;\n    IERC20 internal collateralToken;\n    bytes32[] internal conditionIds;\n    uint internal fee;\n    uint internal feePoolWeight;\n\n    uint[] internal outcomeSlotCounts;\n    bytes32[][] internal collectionIds;\n    uint[] internal positionIds;\n    mapping(address => uint256) internal withdrawnFees;\n    uint internal totalWithdrawnFees;\n}\n",
  "sourcePath": "/home/webexpert/Eminence Projects/Cyrus-Development/conditional-tokens-market-makers/contracts/FixedProductMarketMaker.sol",
  "compiler": {
    "name": "solc",
    "version": "0.5.10+commit.5a6ea5b1.Emscripten.clang"
  },
  "schemaVersion": "3.4.16",
  "updatedAt": "2025-02-19T11:16:42.643Z",
  "devdoc": {
    "methods": {
      "allowance(address,address)": {
        "details": "See {IERC20-allowance}."
      },
      "approve(address,uint256)": {
        "details": "See {IERC20-approve}.     * Requirements:     * - `spender` cannot be the zero address."
      },
      "balanceOf(address)": {
        "details": "See {IERC20-balanceOf}."
      },
      "decreaseAllowance(address,uint256)": {
        "details": "Atomically decreases the allowance granted to `spender` by the caller.     * This is an alternative to {approve} that can be used as a mitigation for problems described in {IERC20-approve}.     * Emits an {Approval} event indicating the updated allowance.     * Requirements:     * - `spender` cannot be the zero address. - `spender` must have allowance for the caller of at least `subtractedValue`."
      },
      "increaseAllowance(address,uint256)": {
        "details": "Atomically increases the allowance granted to `spender` by the caller.     * This is an alternative to {approve} that can be used as a mitigation for problems described in {IERC20-approve}.     * Emits an {Approval} event indicating the updated allowance.     * Requirements:     * - `spender` cannot be the zero address."
      },
      "supportsInterface(bytes4)": {
        "details": "See {IERC165-supportsInterface}.     * Time complexity O(1), guaranteed to always use less than 30 000 gas."
      },
      "totalSupply()": {
        "details": "See {IERC20-totalSupply}."
      },
      "transfer(address,uint256)": {
        "details": "See {IERC20-transfer}.     * Requirements:     * - `recipient` cannot be the zero address. - the caller must have a balance of at least `amount`."
      },
      "transferFrom(address,address,uint256)": {
        "details": "See {IERC20-transferFrom}.     * Emits an {Approval} event indicating the updated allowance. This is not required by the EIP. See the note at the beginning of {ERC20};     * Requirements: - `sender` and `recipient` cannot be the zero address. - `sender` must have a balance of at least `amount`. - the caller must have allowance for `sender`'s tokens of at least `amount`."
      }
    }
  },
  "userdoc": {
    "methods": {}
  }
}